{
  "transactions": [
    {
      "hash": "0x2adf8e4994798dc84c484a3e98bb68b3fa6f213dde1f9cbc093a75dfe28c322b",
      "transactionType": "CALL",
      "contractName": null,
      "contractAddress": "0xff91290e0fb079097c6c6b7b68961e88ecb5e7e0",
      "function": "checkAndAdvanceGrowth(uint256)",
      "arguments": [
        "0"
      ],
      "transaction": {
        "from": "0x45e1913258cb5dfc3ee683beccfebb0e3102374f",
        "to": "0xff91290e0fb079097c6c6b7b68961e88ecb5e7e0",
        "gas": "0x19ca0",
        "value": "0x0",
        "input": "0x24b0836e0000000000000000000000000000000000000000000000000000000000000000",
        "nonce": "0x4",
        "chainId": "0x279f"
      },
      "additionalContracts": [],
      "isFixedGasLimit": false
    }
  ],
  "receipts": [
    {
      "status": "0x1",
      "cumulativeGasUsed": "0x40b09d",
      "logs": [
        {
          "address": "0x714e649777364d4d8d211e80c7ee5ebd54115285",
          "topics": [
            "0x10caa13a185bdc5a37bc70b48463a88b549267b7d3eac5d10c6ffea74b4b915d",
            "0x0000000000000000000000000000000000000000000000000000000000000000"
          ],
          "data": "0x0000000000000000000000000000000000000000000000000000000000000384",
          "blockHash": "0x8c6ff5596ef20a302475b778bfae6b71a9c153a8e4593823a9f47eb637ef352d",
          "blockNumber": "0x23cca4a",
          "blockTimestamp": "0x68c982aa",
          "transactionHash": "0x2adf8e4994798dc84c484a3e98bb68b3fa6f213dde1f9cbc093a75dfe28c322b",
          "transactionIndex": "0xe",
          "logIndex": "0x38",
          "removed": false
        }
      ],
      "logsBloom": "0x00000000000000000000000000000000000000000000000000000000000000010000000000000000000000000000000000000000000000000000000000000000000000000000000000000000000200000000000000000000000000000000000000000000020000000000000000000800000000000004000000000000000000000000000000000000000000000000000020000000000000002000000000000000000000000000000000000000000000000000000000000000000000000000000000000000000000000000000000000000000000000000000000000000000020000000000000000000000000000004000000000000000000000000000000000000",
      "type": "0x0",
      "transactionHash": "0x2adf8e4994798dc84c484a3e98bb68b3fa6f213dde1f9cbc093a75dfe28c322b",
      "transactionIndex": "0xe",
      "blockHash": "0x8c6ff5596ef20a302475b778bfae6b71a9c153a8e4593823a9f47eb637ef352d",
      "blockNumber": "0x23cca4a",
      "gasUsed": "0x19ca0",
      "effectiveGasPrice": "0xc1b710800",
      "from": "0x45e1913258cb5dfc3ee683beccfebb0e3102374f",
      "to": "0xff91290e0fb079097c6c6b7b68961e88ecb5e7e0",
      "contractAddress": null
    }
  ],
  "libraries": [],
  "pending": [],
  "returns": {},
  "timestamp": 1758036650610,
  "chain": 10143,
  "commit": null
}