{
  "transactions": [
    {
      "hash": "0x48b77f5ffd99580147df696de9d281f152c9b0b4e481c3f45bed29eb94b5cbda",
      "transactionType": "CALL",
      "contractName": null,
      "contractAddress": "0xff91290e0fb079097c6c6b7b68961e88ecb5e7e0",
      "function": "checkAndAdvanceGrowth(uint256)",
      "arguments": [
        "0"
      ],
      "transaction": {
        "from": "0x45e1913258cb5dfc3ee683beccfebb0e3102374f",
        "to": "0xff91290e0fb079097c6c6b7b68961e88ecb5e7e0",
        "gas": "0x23ede",
        "value": "0x0",
        "input": "0x24b0836e0000000000000000000000000000000000000000000000000000000000000000",
        "nonce": "0x3",
        "chainId": "0x279f"
      },
      "additionalContracts": [],
      "isFixedGasLimit": false
    }
  ],
  "receipts": [
    {
      "status": "0x1",
      "cumulativeGasUsed": "0x151192",
      "logs": [
        {
          "address": "0x714e649777364d4d8d211e80c7ee5ebd54115285",
          "topics": [
            "0x10caa13a185bdc5a37bc70b48463a88b549267b7d3eac5d10c6ffea74b4b915d",
            "0x0000000000000000000000000000000000000000000000000000000000000000"
          ],
          "data": "0x0000000000000000000000000000000000000000000000000000000000000384",
          "blockHash": "0xf89b952ce365b2b49ee5cc9034357c731dd5d7b0638139ef0d1cbf24410740da",
          "blockNumber": "0x23cc9d8",
          "blockTimestamp": "0x68c9827c",
          "transactionHash": "0x48b77f5ffd99580147df696de9d281f152c9b0b4e481c3f45bed29eb94b5cbda",
          "transactionIndex": "0x9",
          "logIndex": "0x12",
          "removed": false
        }
      ],
      "logsBloom": "0x00000000000000000000000000000000000000000000000000000000000000010000000000000000000000000000000000000000000000000000000000000000000000000000000000000000000200000000000000000000000000000000000000000000020000000000000000000800000000000004000000000000000000000000000000000000000000000000000020000000000000002000000000000000000000000000000000000000000000000000000000000000000000000000000000000000000000000000000000000000000000000000000000000000000020000000000000000000000000000004000000000000000000000000000000000000",
      "type": "0x0",
      "transactionHash": "0x48b77f5ffd99580147df696de9d281f152c9b0b4e481c3f45bed29eb94b5cbda",
      "transactionIndex": "0x9",
      "blockHash": "0xf89b952ce365b2b49ee5cc9034357c731dd5d7b0638139ef0d1cbf24410740da",
      "blockNumber": "0x23cc9d8",
      "gasUsed": "0x23ede",
      "effectiveGasPrice": "0xc1b710800",
      "from": "0x45e1913258cb5dfc3ee683beccfebb0e3102374f",
      "to": "0xff91290e0fb079097c6c6b7b68961e88ecb5e7e0",
      "contractAddress": null
    }
  ],
  "libraries": [],
  "pending": [],
  "returns": {},
  "timestamp": 1758036604982,
  "chain": 10143,
  "commit": null
}