{
  "transactions": [
    {
      "hash": "0x4653d0bf797e4602d6ed77abe24d5e81fbcb4f5b7db401276fa290c34d11a433",
      "transactionType": "CALL",
      "contractName": null,
      "contractAddress": "0xff91290e0fb079097c6c6b7b68961e88ecb5e7e0",
      "function": "buySeedWithNative(uint8)",
      "arguments": [
        "0"
      ],
      "transaction": {
        "from": "0x45e1913258cb5dfc3ee683beccfebb0e3102374f",
        "to": "0xff91290e0fb079097c6c6b7b68961e88ecb5e7e0",
        "gas": "0x35beb",
        "value": "0x38d7ea4c68000",
        "input": "0xf98634420000000000000000000000000000000000000000000000000000000000000000",
        "nonce": "0x0",
        "chainId": "0x279f"
      },
      "additionalContracts": [],
      "isFixedGasLimit": false
    },
    {
      "hash": "0x05d424422dc666479d4e3d3728af00a3a09348335d917f51f365fcc274e99ff0",
      "transactionType": "CALL",
      "contractName": null,
      "contractAddress": "0xff91290e0fb079097c6c6b7b68961e88ecb5e7e0",
      "function": "claimLand(uint256,uint256)",
      "arguments": [
        "0",
        "0"
      ],
      "transaction": {
        "from": "0x45e1913258cb5dfc3ee683beccfebb0e3102374f",
        "to": "0xff91290e0fb079097c6c6b7b68961e88ecb5e7e0",
        "gas": "0x5d9fb",
        "value": "0x0",
        "input": "0xef6f1a2f00000000000000000000000000000000000000000000000000000000000000000000000000000000000000000000000000000000000000000000000000000000",
        "nonce": "0x1",
        "chainId": "0x279f"
      },
      "additionalContracts": [],
      "isFixedGasLimit": false
    }
  ],
  "receipts": [
    {
      "status": "0x1",
      "cumulativeGasUsed": "0x2f37d9",
      "logs": [
        {
          "address": "0xceadfda643baedd53cdfb9ba9338fd8cd9aea9f9",
          "topics": [
            "0xddf252ad1be2c89b69c2b068fc378daa952ba7f163c4a11628f55a4df523b3ef",
            "0x0000000000000000000000000000000000000000000000000000000000000000",
            "0x00000000000000000000000045e1913258cb5dfc3ee683beccfebb0e3102374f",
            "0x0000000000000000000000000000000000000000000000000000000000000000"
          ],
          "data": "0x",
          "blockHash": "0x68849c27771603fa0f5cda91b483143834f7ee1bfb77f0cc776df368d0b47879",
          "blockNumber": "0x23cbf9b",
          "blockTimestamp": "0x68c97e35",
          "transactionHash": "0x4653d0bf797e4602d6ed77abe24d5e81fbcb4f5b7db401276fa290c34d11a433",
          "transactionIndex": "0x8",
          "logIndex": "0x10",
          "removed": false
        },
        {
          "address": "0xceadfda643baedd53cdfb9ba9338fd8cd9aea9f9",
          "topics": [
            "0xd2a1c352aee8b74ede52ceb90d152f5805ae0b36aafbdc26bb3f0b92e5b99976",
            "0x0000000000000000000000000000000000000000000000000000000000000000",
            "0x00000000000000000000000045e1913258cb5dfc3ee683beccfebb0e3102374f"
          ],
          "data": "0x00000000000000000000000000000000000000000000000000000000000000000000000000000000000000000000000000000000000000000000000000000000",
          "blockHash": "0x68849c27771603fa0f5cda91b483143834f7ee1bfb77f0cc776df368d0b47879",
          "blockNumber": "0x23cbf9b",
          "blockTimestamp": "0x68c97e35",
          "transactionHash": "0x4653d0bf797e4602d6ed77abe24d5e81fbcb4f5b7db401276fa290c34d11a433",
          "transactionIndex": "0x8",
          "logIndex": "0x11",
          "removed": false
        },
        {
          "address": "0xff91290e0fb079097c6c6b7b68961e88ecb5e7e0",
          "topics": [
            "0x6b2d2e02a9bb1abdb0842f0c5321526b241590acebe2983c3bdd57166b814286",
            "0x00000000000000000000000045e1913258cb5dfc3ee683beccfebb0e3102374f"
          ],
          "data": "0x00000000000000000000000000000000000000000000000000000000000000000000000000000000000000000000000000000000000000000000000000000000000000000000000000000000000000000000000000000000000000000000000000000000000000000000000000000000000000000000000000038d7ea4c68000",
          "blockHash": "0x68849c27771603fa0f5cda91b483143834f7ee1bfb77f0cc776df368d0b47879",
          "blockNumber": "0x23cbf9b",
          "blockTimestamp": "0x68c97e35",
          "transactionHash": "0x4653d0bf797e4602d6ed77abe24d5e81fbcb4f5b7db401276fa290c34d11a433",
          "transactionIndex": "0x8",
          "logIndex": "0x12",
          "removed": false
        }
      ],
      "logsBloom": "0x00000000040400000000000000200000000000000000200000000000000000000000000000000000080000000000000000000000000000000012000000000000000000000000000000000008000400000000000000000000000000000800000000000000020000000000000000000800000000000000000000000010000000000000000000000000000000000000000000000000000008000000000040000000000000000000000000000000000000000000000000080000000000000000000000000002000000000200000000000000000010000004000000000000000020000000000000000000000000000000000000000000000000000000000000000000",
      "type": "0x0",
      "transactionHash": "0x4653d0bf797e4602d6ed77abe24d5e81fbcb4f5b7db401276fa290c34d11a433",
      "transactionIndex": "0x8",
      "blockHash": "0x68849c27771603fa0f5cda91b483143834f7ee1bfb77f0cc776df368d0b47879",
      "blockNumber": "0x23cbf9b",
      "gasUsed": "0x35beb",
      "effectiveGasPrice": "0xc1b710800",
      "from": "0x45e1913258cb5dfc3ee683beccfebb0e3102374f",
      "to": "0xff91290e0fb079097c6c6b7b68961e88ecb5e7e0",
      "contractAddress": null
    },
    {
      "status": "0x1",
      "cumulativeGasUsed": "0x3511d4",
      "logs": [
        {
          "address": "0x714e649777364d4d8d211e80c7ee5ebd54115285",
          "topics": [
            "0x6c96f21f0d48881f19859561dc00eb95e4ca177c49329b14757f453a80632314",
            "0x0000000000000000000000000000000000000000000000000000000000000000",
            "0x00000000000000000000000045e1913258cb5dfc3ee683beccfebb0e3102374f",
            "0x0000000000000000000000000000000000000000000000000000000000000000"
          ],
          "data": "0x",
          "blockHash": "0x68849c27771603fa0f5cda91b483143834f7ee1bfb77f0cc776df368d0b47879",
          "blockNumber": "0x23cbf9b",
          "blockTimestamp": "0x68c97e35",
          "transactionHash": "0x05d424422dc666479d4e3d3728af00a3a09348335d917f51f365fcc274e99ff0",
          "transactionIndex": "0x9",
          "logIndex": "0x13",
          "removed": false
        },
        {
          "address": "0x714e649777364d4d8d211e80c7ee5ebd54115285",
          "topics": [
            "0xa68b6192c5185cc0b54e584df755b20e08267f0c80462555f30d82e256a13fcf",
            "0x0000000000000000000000000000000000000000000000000000000000000000"
          ],
          "data": "0x0000000000000000000000000000000000000000000000000000000000000001",
          "blockHash": "0x68849c27771603fa0f5cda91b483143834f7ee1bfb77f0cc776df368d0b47879",
          "blockNumber": "0x23cbf9b",
          "blockTimestamp": "0x68c97e35",
          "transactionHash": "0x05d424422dc666479d4e3d3728af00a3a09348335d917f51f365fcc274e99ff0",
          "transactionIndex": "0x9",
          "logIndex": "0x14",
          "removed": false
        },
        {
          "address": "0xceadfda643baedd53cdfb9ba9338fd8cd9aea9f9",
          "topics": [
            "0xae2a42fecc20d0720a9b09511d809cad75a012c796fa22d523713c294f3d078b",
            "0x0000000000000000000000000000000000000000000000000000000000000000"
          ],
          "data": "0x0000000000000000000000000000000000000000000000000000000000000001",
          "blockHash": "0x68849c27771603fa0f5cda91b483143834f7ee1bfb77f0cc776df368d0b47879",
          "blockNumber": "0x23cbf9b",
          "blockTimestamp": "0x68c97e35",
          "transactionHash": "0x05d424422dc666479d4e3d3728af00a3a09348335d917f51f365fcc274e99ff0",
          "transactionIndex": "0x9",
          "logIndex": "0x15",
          "removed": false
        },
        {
          "address": "0x714e649777364d4d8d211e80c7ee5ebd54115285",
          "topics": [
            "0x3bf9ef6d8df9b15ed8cd0236ee8d9fb84334b45f06ddfd480d9e5696ab1f9337",
            "0x0000000000000000000000000000000000000000000000000000000000000000"
          ],
          "data": "0x54a15fba63ccdc986415a180094012180b2b9b801aed0cb4531a07fcb0de3082",
          "blockHash": "0x68849c27771603fa0f5cda91b483143834f7ee1bfb77f0cc776df368d0b47879",
          "blockNumber": "0x23cbf9b",
          "blockTimestamp": "0x68c97e35",
          "transactionHash": "0x05d424422dc666479d4e3d3728af00a3a09348335d917f51f365fcc274e99ff0",
          "transactionIndex": "0x9",
          "logIndex": "0x16",
          "removed": false
        },
        {
          "address": "0xff91290e0fb079097c6c6b7b68961e88ecb5e7e0",
          "topics": [
            "0x8cb20d47ca8087e2e6995aa3a9e8183da5116f53bc7fd989f0d047c0e0f9e15d",
            "0x0000000000000000000000000000000000000000000000000000000000000000"
          ],
          "data": "0x54a15fba63ccdc986415a180094012180b2b9b801aed0cb4531a07fcb0de3082",
          "blockHash": "0x68849c27771603fa0f5cda91b483143834f7ee1bfb77f0cc776df368d0b47879",
          "blockNumber": "0x23cbf9b",
          "blockTimestamp": "0x68c97e35",
          "transactionHash": "0x05d424422dc666479d4e3d3728af00a3a09348335d917f51f365fcc274e99ff0",
          "transactionIndex": "0x9",
          "logIndex": "0x17",
          "removed": false
        },
        {
          "address": "0xff91290e0fb079097c6c6b7b68961e88ecb5e7e0",
          "topics": [
            "0xe9d066f43c8a7c765b15b359553a8d0058f345fc38d18799ff4e431ea4f9ea9e",
            "0x00000000000000000000000045e1913258cb5dfc3ee683beccfebb0e3102374f",
            "0x0000000000000000000000000000000000000000000000000000000000000000",
            "0x0000000000000000000000000000000000000000000000000000000000000000"
          ],
          "data": "0x",
          "blockHash": "0x68849c27771603fa0f5cda91b483143834f7ee1bfb77f0cc776df368d0b47879",
          "blockNumber": "0x23cbf9b",
          "blockTimestamp": "0x68c97e35",
          "transactionHash": "0x05d424422dc666479d4e3d3728af00a3a09348335d917f51f365fcc274e99ff0",
          "transactionIndex": "0x9",
          "logIndex": "0x18",
          "removed": false
        },
        {
          "address": "0xff91290e0fb079097c6c6b7b68961e88ecb5e7e0",
          "topics": [
            "0x2dd11fcb08e31fe5be3a4714c671025df8219797265c11d3e8615ab1e96ed859",
            "0x0000000000000000000000000000000000000000000000000000000000000000"
          ],
          "data": "0x0000000000000000000000000000000000000000000000000000000000000000",
          "blockHash": "0x68849c27771603fa0f5cda91b483143834f7ee1bfb77f0cc776df368d0b47879",
          "blockNumber": "0x23cbf9b",
          "blockTimestamp": "0x68c97e35",
          "transactionHash": "0x05d424422dc666479d4e3d3728af00a3a09348335d917f51f365fcc274e99ff0",
          "transactionIndex": "0x9",
          "logIndex": "0x19",
          "removed": false
        }
      ],
      "logsBloom": "0x00000000000000000000000000200000000100000000000000000000100000001200000000004200000000000000040000000000000080000010000000000000000000000000000000000000000600000000020100000000000000000800000000002008020000000000000000000800000000000000000000000000000000000001000000000000000000000000000020000000040008012040000040040800000000000000000000000000000000000000000000080000000000000000000000004000000000000200000000000000080010000000000000000000000020000000000000000800000000000000000000000000000000000000000000000000",
      "type": "0x0",
      "transactionHash": "0x05d424422dc666479d4e3d3728af00a3a09348335d917f51f365fcc274e99ff0",
      "transactionIndex": "0x9",
      "blockHash": "0x68849c27771603fa0f5cda91b483143834f7ee1bfb77f0cc776df368d0b47879",
      "blockNumber": "0x23cbf9b",
      "gasUsed": "0x5d9fb",
      "effectiveGasPrice": "0xc1b710800",
      "from": "0x45e1913258cb5dfc3ee683beccfebb0e3102374f",
      "to": "0xff91290e0fb079097c6c6b7b68961e88ecb5e7e0",
      "contractAddress": null
    }
  ],
  "libraries": [],
  "pending": [],
  "returns": {},
  "timestamp": 1758035510147,
  "chain": 10143,
  "commit": null
}